S02200004F70647261636874656E4D6963726F636F6E74726F6C6C6572732E7372656349
S113000045C00000C8C00000D1C000005CC00000B2
S11300105AC0000058C0000056C0000054C0000080
S113002052C0000050C000004EC000004CC0000090
S11300304AC0000048C0000046C0000044C00000A0
S113004042C0000040C000003EC000003CC00000B0
S11300503AC0000038C0000036C0000034C00000C0
S113006032C0000030C000002EC000002CC00000D0
S11300702AC0000028C0000026C0000024C00000E0
S113008022C0000020C000001EC0000011241FBEBA
S1130090CFEFD0E1DEBFCDBF11E0A0E0B1E0E6ECF0
S11300A0F1E000E00BBF02C007900D92A030B10751
S11300B0D9F721E0A0E0B1E001C01D92A030B20761
S11300C0E1F754D07EC09CCF1092710080E28093FF
S11300D07000089584EA80937400E4E7F0E080817E
S11300E08823ECF708958093730084E88093740068
S11300F0E4E7F0E080818823ECF70895E5DFEADFA8
S113010080EEF1DF81E2EFDFC4E7D0E014E9188389
S1130110E1DF80EEE8DF80EAE6DF1883DBDF80EEF4
S1130120E2DF83EEE0DF1883D5DF80EEDCDF81E8F9
S1130130DADF188304E710E0C4E9CCDF80EED3DF14
S113014080E0D1DF80E0CFDFF801C08384EF91E06D
S113015011D0C0DF80EEC7DF80E0C5DF81E0C3DF00
S1130160F801C08384EF91E005D0E7CFC7DF80E0DA
S113017090E00895181619066CF420E030E0EFECD6
S1130180F7E03197F1F700C000002F5F3F4F82176F
S11301909307A9F708951F920F920FB60F92112497
S11301A0959A0F900FBE0F901F9018951F920F9263
S11301B00FB60F92112495980F900FBE0F901F90B9
S10901C01895F894FFCF2E
S9030000FC
